:100000000C94B5010C94E6010C94E6010C94E60105
:100010000C94E6010C94E6010C94E6010C94E601C4
:100020000C94E6010C94E6010C94E6010C94E601B4
:100030000C94E6010C94E6010C94E6010C94E601A4
:100040000C94E6010C94E6010C94E6010C94E60194
:100050000C94E6010C94E6010C94E6010C949006D5
:100060000C94E6010C945A060C9430060C94E601AC
:100070000C94E6010C94E6010C94E6010C94E60164
:100080000C94E6010C94E6010C94E6010C94E60154
:100090000C94E6010C94E6010C94E6010C94E60144
:1000A0000C94E6010C94E6010C94E6010C94E60134
:1000B0000C94E6010C94E6010C94E6010C94E60124
:1000C0000C94E6010C94E6010C94E6010C94E60114
:1000D0000C94E6010C94E6010C94E6010C94E60104
:1000E0000C94E6010C9486030C9498030C9463031F
:1000F0000C947C030C94CB020C9438020C947E027A
:100100000C946F030C9446020C94A2030C9490037D
:100110000C94E8010C946B030C9472030C948A0306
:100120000C9467030C9451030C94DA060C944C0362
:100130000C9415020C9478030C9424020C949E03E6
:100140000C9494030C948203005EBCE2613FDD8357
:10015000C29C7E20A3FD1F419DC3217FFCA2401EA7
:100160005F01E3BD3E6082DC237D9FC1421CFEA097
:10017000E1BF5D0380DE3C62BEE0025CDF81633D87
:100180007C22C09E1D43A1FF4618FAA427799BC577
:1001900084DA3866E5BB5907DB856739BAE4065867
:1001A0001947A5FB7826C49A653BD987045AB8E657
:1001B000A7F91B45C6987A24F8A6441A99C7257B47
:1001C0003A6486D85B05E7B98CD2306EEDB3510F37
:1001D0004E10F2AC2F7193CD114FADF3702ECC9227
:1001E000D38D6F31B2EC0E50AFF1134DCE90722C17
:1001F0006D33D18F0C52B0EE326C8ED0530DEFB107
:10020000F0AE4C1291CF2D73CA947628ABF51749F6
:100210000856B4EA6937D58B5709EBB536688AD4E6
:1002200095CB2977F4AA4816E9B7550B88D6346AD6
:100230002B7597C94A14F6A8742AC896154BA9F7C6
:10024000B6E80A54D7896B3500000A0B02090C0D79
:100250000E08070304010000000000000000000079
:10026000000000000000000000000000000000008E
:10027000000000001211100000000000000000004B
:10028000000000000000000000000000000000006E
:100290002200250028002B002E003100340002012E
:1002A0000000050108010B010000210024002700C7
:1002B0002A002D0030003300010100000401070175
:1002C0000A01000020002300260029002C002F0036
:1002D00032000001000003010601090105050505C2
:1002E000070508080808020202020A0A08080404AE
:1002F00004040101010101010101030303030303DC
:100300000303040707070C0C0C0C0C0C0C0C02026A
:10031000020206060606060606060B0B0B0B0B0B67
:100320000B0B0102102020080810204010204080F4
:1003300002010201080402010102040810204080A9
:100340008040201008040201800402018040201037
:100350000804020108040201010204081020408080
:100360000102040810204080DA0611241FBECFEFDE
:10037000D1E2DEBFCDBF00E00CBF12E0A0E0B2E0F2
:10038000ECECF9E100E00BBF02C007900D92A4383D
:10039000B107D9F723E0A4E8B2E001C01D92AF3461
:1003A000B207E1F711E0C5EBD1E000E006C021970C
:1003B0000109802FFE010E94C80CC43BD10780E0D8
:1003C0000807A9F70E9487070C94E40C0C9400001E
:1003D000AF92BF92CF92DF92EF92FF920F931F9353
:1003E000CF93DF936C017B018B01040F151FEB0191
:1003F0005E01AE18BF08C017D10759F06991D60148
:10040000ED91FC910190F081E02DC6011995892BA9
:1004100079F7C501DF91CF911F910F91FF90EF9078
:10042000DF90CF90BF90AF900895FC01538D448D25
:10043000252F30E0842F90E0821B930B541710F08F
:10044000CF96089501970895FC01918D828D98179C
:1004500061F0A28DAE0FBF2FB11D5D968C91928D74
:100460009F5F9F73928F90E008958FEF9FEF0895A5
:10047000FC01918D828D981731F0828DE80FF11D6E
:10048000858D90E008958FEF9FEF0895FC01918D89
:10049000228D892F90E0805C9F4F821B91098F7382
:1004A000992708958DE892E00E94460221E0892B69
:1004B00009F420E0822F0895FC01A48DA80FB92F24
:1004C000B11DA35ABF4F2C91848D90E001968F737C
:1004D0009927848FA689B7892C93A089B1898C919B
:1004E000837080648C93938D848D981306C00288EA
:1004F000F389E02D80818F7D80830895EF92FF92B4
:100500000F931F93CF93DF93EC0181E0888F9B8D36
:100510008C8D98131AC0E889F989808185FF15C0F0
:100520009FB7F894EE89FF896083E889F989808113
:100530008370806480839FBF81E090E0DF91CF91E2
:100540001F910F91FF90EF900895F62E0B8D10E004
:100550000F5F1F4F0F731127E02E8C8D8E110CC073
:100560000FB607FCFACFE889F989808185FFF5CFBE
:10057000CE010E945C02F1CFEB8DEC0FFD2FF11D3F
:10058000E35AFF4FF0829FB7F8940B8FEA89FB89FB
:1005900080818062CFCFCF93DF93EC01888D882359
:1005A000B9F0AA89BB89E889F9898C9185FD03C0D6
:1005B000808186FD0DC00FB607FCF7CF8C9185FFBB
:1005C000F2CF808185FFEDCFCE010E945C02E9CFA2
:1005D000DF91CF91089580E090E0892B29F00E946F
:1005E000520281110E94000080E090E0892B49F0C6
:1005F00080E090E0892B29F00E94000081110E9488
:10060000000080E090E0892B49F080E090E0892BA9
:1006100029F00E94000081110E94000080E090E01B
:10062000892B49F080E090E0892B29F00E9400009E
:1006300081110C9400000895282F30E0F901E85B47
:10064000FD4F9491F901EE5DFC4F449124523D4FD2
:10065000F9012491222309F435C0992311F1915015
:100660009231F8F4E92FF0E08827E65CFC4F8F4FD9
:100670000C94C80C6B036F034C03630367035103B3
:10068000720378037C03820386038A039003940336
:10069000510398039E03A203809180008F7780937B
:1006A0008000E22FF0E0EE0FFF1FE257FD4FA59113
:1006B000B4918FB7F894EC91611148C040954E23E6
:1006C0004C938FBF0895809180008F7DE8CF8091FB
:1006D0008000877FE4CF84B58F7784BDE2CF84B577
:1006E0008F7DFBCF8091B0008F778093B000D9CF02
:1006F0008091B0008F7DF9CF809190008F778093AB
:100700009000CFCF809190008F7DF9CF80919000A5
:10071000877FF5CF8091A0008F778093A000C1CF15
:100720008091A0008F7DF9CF8091A000877FF5CFC9
:10073000809120018F7780932001B3CF8091200199
:100740008F7DF9CF80912001877FF5CF4E2BB8CFD9
:100750003FB7F8948091850290918602A09187021C
:10076000B091880226B5A89B05C02F3F19F00196CD
:10077000A11DB11D3FBFBA2FA92F982F8827BC01FB
:10078000CD01620F711D811D911D42E0660F771F23
:10079000881F991F4A95D1F708958F929F92AF9223
:1007A000BF92CF92DF92EF92FF926B017C010E9489
:1007B000A8034B015C01C114D104E104F104B9F0B8
:1007C0000E94A803681979098A099B09683E734049
:1007D0008105910580F321E0C21AD108E108F108F2
:1007E00088EE880E83E0981EA11CB11CE4CFFF9018
:1007F000EF90DF90CF90BF90AF909F908F90089533
:10080000DC0180E0615038F0ED91E827F0E0E85B32
:10081000FE4F8491F7CF0895DC012C911196ED9154
:10082000FC91F8948181822B81839281322F3095C3
:100830009323928387E090E00197F1F781818323EE
:10084000818383E290E00197F1F790817894EFEC57
:10085000F0E03197F1F7922381E009F480E0089508
:10086000FC0190810180F281E02D292F209560FF0D
:1008700014C0F8948281822382838181892B8183B1
:10088000A3E2B0E01197F1F78281982B92837894DC
:1008900087ED90E00197F1F70895F8948281822323
:1008A00082838181892B8183AFEFB0E01197F1F7CB
:1008B0008281982B928378948FE090E0EBCFDF9247
:1008C000EF92FF920F931F93CF93DF93EC01D62EFD
:1008D000E42E08E010E0FF24F39461E08D2D8F21D9
:1008E00009F460E0CE010E943004FF0C01501109B0
:1008F000A1F7E11010C0F894E981FA819181888113
:10090000809589238183E981FA819281888180950C
:10091000892382837894DF91CF911F910F91FF906B
:10092000EF90DF900895EF92FF920F931F93CF9374
:10093000DF938C017B0140E065E50E945F04E701E5
:1009400088E0E80EF11C699140E0C8010E945F0454
:10095000CE15DF05C1F7DF91CF911F910F91FF9069
:10096000EF900895FC0190810180F281E02DF894D0
:100970008181292F20958223818378943DE743E06C
:1009800050E0315029F1DA011197F1F78081892384
:10099000C1F3F8948281822382838181892B8183B0
:1009A0007894ABE7B7E01197F1F7F894818182234F
:1009B0008183A3E1B1E01197F1F78081982381E071
:1009C00009F080E07894E3E6F6E03197F1F70895D6
:1009D00080E008956F927F928F929F92AF92BF9224
:1009E000CF92DF92EF92FF920F931F93CF93DF93FB
:1009F0008C01EB0180913303909134030E94B20487
:100A0000882309F43FC0B8018091330390913403E7
:100A10000E94930440E06EEB809133039091340385
:100A20000E945F047E016E0189E0C80ED11C8E0118
:100A3000A0903303B090340388E0882E912C712C61
:100A400066246394C5010E940C0481117628660C0B
:100A5000E1E08E1A9108B1F7F80171928F01CE167C
:100A6000DF0631F780913303909134030E94B20482
:100A7000813041F4F70181917F01811105C0E017B8
:100A8000F107C1F790E008C068E0CE010E940004C1
:100A900091E028852813F6CF892FDF91CF911F9100
:100AA0000F91FF90EF90DF90CF90BF90AF909F900D
:100AB0008F907F906F900895BF92CF92DF92EF92C8
:100AC000FF920F931F93CF93DF93EC01B62EC72EA7
:100AD000ED84EE2081F01B861D861C8680E0239627
:100AE000EB2DFC2D9F01285F3F4F999191932E177D
:100AF0003F07D9F707C00E94B20481110DC01B86C1
:100B00001D861C86DF91CF911F910F91FF90EF9072
:100B1000DF90CF90BF90089540E060EFCE010E943B
:100B20005F04D12C01E011E0CE010E940C04F82EEC
:100B3000CE010E940C0491E0F9120EC0813049F5FB
:100B4000113448F2EB86E11002C081E08D878B8181
:100B5000882309F281E0C3CFED2DF0E0F8120FC039
:100B60008B851817A0F4DE01AE0FBF1F13968C9172
:100B7000802379F4F12C193008F41C87E12EEC0F56
:100B8000FD1F8381902F9095892383830AC0811351
:100B9000F1CFFE01ED0DF11D8381802B8383FF24B6
:100BA000F3946F2DCE010E9430041F5F000F11F4EB
:100BB000D39401E087E08D1508F0B6CFC1CFFC01DA
:100BC00001900020E9F73197AF01481B590BBC0198
:100BD0008DE892E00C94E8018F929F92AF92BF92C1
:100BE0000F931F93CF93DF93CDB7DEB7A1970FB6C7
:100BF000F894DEBF0FBECDBF19A2423008F44AE020
:100C00008E010F5D1F4F842E912CB12CA12CA501BC
:100C100094010E94A60CE62FB901CA01EA30F4F44F
:100C2000E05DD801EE938D01232B242B252B79F742
:100C300090E080E0109719F0CD010E94DF05A196A9
:100C40000FB6F894DEBF0FBECDBFDF91CF911F91DD
:100C50000F91BF90AF909F908F900895E95CE1CF86
:100C60001F920F920FB60F9211240BB60F922F9373
:100C70003F934F935F936F937F938F939F93AF9324
:100C8000BF93EF93FF938DE892E00E945C02FF9187
:100C9000EF91BF91AF919F918F917F916F915F91F4
:100CA0004F913F912F910F900BBE0F900FBE0F9061
:100CB0001F9018951F920F920FB60F9211240BB62A
:100CC0000F922F938F939F93EF93FF93E0919D0249
:100CD000F0919E028081E091A302F091A40282FD36
:100CE0001DC090818091A6028F5F8F732091A70213
:100CF000821741F0E091A602F0E0E357FD4F958F97
:100D00008093A602FF91EF919F918F912F910F9069
:100D10000BBE0F900FBE0F901F9018958081F2CFE1
:100D20001F920F920FB60F9211242F933F938F9320
:100D30009F93AF93BF938091890290918A02A09173
:100D40008B02B0918C023091840223E0230F2D3767
:100D500058F50196A11DB11D20938402809389024C
:100D600090938A02A0938B02B0938C0280918502AB
:100D700090918602A0918702B09188020196A11DF0
:100D8000B11D8093850290938602A0938702B09351
:100D90008802BF91AF919F918F913F912F910F90BA
:100DA0000FBE0F901F90189526E8230F0296A11DE5
:100DB000B11DD2CFCF93DF931092900210928F0289
:100DC00088EE93E0A0E0B0E08093910290939202CD
:100DD000A0939302B09394028AE092E090938E02E3
:100DE00080938D0285EC90E090939A028093990213
:100DF00084EC90E090939C0280939B0280EC90E0C6
:100E000090939E0280939D0281EC90E09093A002CB
:100E100080939F0282EC90E09093A2028093A102C3
:100E200086EC90E09093A4028093A3021092A60215
:100E30001092A7021092A8021092A90245E253E074
:100E4000FA0164918FED92E0FC0124912223C1F01C
:100E500030E0220F331FF901E855FD4FA591B49101
:100E6000F901E257FD4FC591D4917FB7F8943C91B9
:100E7000262F209532233C933881232328837FBF5C
:100E8000FA01449140934103FC018491E82FF0E082
:100E9000EE0FFF1FEE53FD4F859194919093430306
:100EA0008093420310924C0310924E0310924D0314
:100EB00010924B0310924A03109249031092480378
:100EC0001092470310924603109245031092440378
:100ED0001092400310923F0310922B0381E493E0A1
:100EE00090933403809333031092310310923203B2
:100EF00010922A0389E080932D0381E080932E03D2
:100F000080932F0380933003DF91CF910895CF9387
:100F1000DF93CDB7DEB761970FB6F894DEBF0FBE93
:100F2000CDBF789484B5826084BD84B5816084BD72
:100F300085B5826085BD85B5816085BD80916E0077
:100F4000816080936E0010928100809181008260A8
:100F500080938100809181008160809381008091E5
:100F600080008160809380008091B10084608093D4
:100F7000B1008091B00081608093B00080919100B9
:100F800082608093910080919100816080939100B4
:100F9000809190008160809390008091A100826098
:100FA0008093A1008091A10081608093A100809135
:100FB000A00081608093A0008091210182608093D5
:100FC0002101809121018160809321018091200184
:100FD00081608093200180917A00846080937A0000
:100FE00080917A00826080937A0080917A0081609B
:100FF00080937A0080917A00806880937A001092C2
:10100000C100E0919D02F0919E0282E08083E09118
:101010009902F0919A021082E0919B02F0919C0259
:101020008FEC80831092A502E091A102F091A202C0
:1010300086E08083E0919F02F091A0028081806130
:101040008083E0919F02F091A0028081886080837C
:10105000E0919F02F091A002808180688083E091FE
:101060009F02F091A00280818F7D808388E192E0D1
:101070000E94DF0583E492E00E94DF05E0913303E4
:10108000F091340313861586148612861186108615
:1010900017821682158214821382109231031092E5
:1010A000320311E0BE01665F7F4F80913303909160
:1010B00034030E945C05882309F405C167E0CE0172
:1010C0000A960E94000499898913ECCF809131031C
:1010D0008F5F809331038A85883231F008F04EC0EB
:1010E000803111F08232F1F6809132038F5F80936C
:1010F000320380912A03811128C08091330390919B
:1011000034030E94B204BE01665F7F4F80913303B7
:10111000909134030E94930440E064EB8091330388
:10112000909134030E945F048091330390913403C3
:101130000E940C04082F80913303909134030E9485
:10114000B204011102C010932A038A85803109F18B
:10115000BE016F5F7F4FCE010A960E94EA0488238A
:1011600059F08D819A859B3311F487FD12C08F331E
:1011700091F058F48F31C1F080E00EC08B3309F448
:10118000B3CF823409F08ECFAFCF8F3579F08F3760
:1011900099F78CE001C08AE090912D03981708F030
:1011A00081CF80932D037ECF89E0F6CF8BE0F4CF03
:1011B000E0912D03E9508EEE92E0E33038F4F0E058
:1011C000EE0FFF1FE050FE4F808191816C01F12CEA
:1011D000E12C80912B03882329F060E080912C037F
:1011E0000E941C03C701B6010E94CD0380912B030E
:1011F000882309F4B7C061E080912C030E941C038E
:10120000B1C08A81C12CD12C760187FF06C0C12CC8
:10121000D12CF8EFEF2EFF24FA949A8549819B3365
:1012200009F0F9C02D8127FFF6C040FDD2C0042F80
:1012300010E030E020E073E0000F111F221F331F89
:101240007A95D1F7B901A801407E577066277727B4
:1012500090E0B0E0A0E08C019D01EBE0000F111FD9
:10126000221F331FEA95D1F7042B152B262B372B82
:101270000C291D292E293F29013854EE15075FEF4F
:10128000250735070CF4A5C0C901B8010E946B0BF6
:1012900020E030E040E05CE30E94200C6B017C0128
:1012A000AC019B010E948D0C882309F498C088E74B
:1012B00092E00E94DF0568EE73E080E090E00E941B
:1012C000CD030E94EB0286E492E00E94DF0580914C
:1012D0003303909134030E94B20440E06CEC80919F
:1012E0003303909134030E945F0440912A0364E425
:1012F00080913303909134030E945F048FB7F89478
:10130000C0908902D0908A02E0908B02F0908C020B
:101310008FBF80912E03882329F180912F0388238A
:1013200009F446CF80912A03811142CF8091330383
:10133000909134030E940C048130A1F02FB7F894EF
:101340008091890290918A02A0918B02B0918C02C7
:101350002FBF8C199D09AE09BF098E3E9240A10591
:10136000B10520F382E692E00E94DF0583E492E07B
:101370000E94DF0587E692E00E94DF05E0913303DB
:10138000F091340313861586148612861186108612
:1013900017821682158214821382BE01665F7F4F08
:1013A00080913303909134030E945C05882389F077
:1013B00067E0CE010A960E9400049989891309C04A
:1013C000BE016F5F7F4FCE010A960E94EA04811131
:1013D00018CFC12CD12C8EEFE82E82ECF82E4601CE
:1013E0005701E894B7F82FEF3FEF4FE75FE7C501EC
:1013F000B4010E948D0C811154C02FEF3FEF4FE7D5
:101400005FE7C501B4010E94350B18160CF049C006
:101410008CE792E04ECF082F10E0102F0027110F1D
:10142000110F110F88E0489FA0011124042B152BE8
:10143000012E000C220B330B0C291D292E293F29CC
:10144000903109F019CF6885662309F415CF70E053
:101450008F81AB01481B5109CA019695982F8827A7
:10146000979587950E94920CCB01770FAA0BBB0B27
:1014700053E0000F111F221F331F5A95D1F7007838
:10148000277033270052110921093109800F911F5C
:10149000A21FB31F97018601082B192B2A2B3B2B68
:1014A000EBCE2FEF3FEF4FE75FE4C701B6010E949D
:1014B0001B0C18161CF480E892E0FBCE2FEF3FEFD8
:1014C0004FE75FECC701B6010E94350B87FDF3CFF4
:1014D00020E030E0A901C701B6010E94350B87FF6B
:1014E00009C06DE28DE892E00E947E02F7FAF09466
:1014F000F7F8F0942AE037ED43EA5BE3C701B60161
:101500000E94C90A4B015C010E943A0B6B017C01ED
:101510000E94690B9B01AC01C501B4010E94C80A7D
:101520004B015C014AE0C701B6010E94EC056EE286
:101530008DE892E00E947E0220E030E040E251E43B
:10154000C501B4010E94200C4B015C010E943A0BC2
:101550006B01F12CE12C4AE0C701B6010E94EC05B9
:10156000C701B6010E94690B9B01AC01C501B40122
:101570000E94C80A20E030E040E251E40E94200CC2
:101580000E943A0B90E080E04AE00E94EC0593CE86
:101590005058BB27AA270E94E00A0C94E10B0E9436
:1015A000D30B38F00E94DA0B20F039F49F3F19F486
:1015B00026F40C94D00B0EF4E095E7FB0C94CA0BC8
:1015C000E92F0E94F20B58F3BA17620773078407DA
:1015D000950720F079F4A6F50C94140C0EF4E09520
:1015E0000B2EBA2FA02D0B01B90190010C01CA01DD
:1015F000A0011124FF27591B99F0593F50F4503E88
:1016000068F11A16F040A22F232F342F4427585F79
:10161000F3CF469537952795A795F0405395C9F791
:101620007EF41F16BA0B620B730B840BBAF0915049
:10163000A1F0FF0FBB1F661F771F881FC2F70EC0E8
:10164000BA0F621F731F841F48F4879577956795BB
:10165000B795F7959E3F08F0B0CF9395880F08F0A7
:101660009927EE0F9795879508950E94A60B08F489
:1016700081E008950E94FA0B88F09F5798F0B92FE7
:101680009927B751B0F0E1F0660F771F881F991FB7
:101690001AF0BA95C9F714C0B13091F00E94140C39
:1016A000B1E008950C94140C672F782F8827B85F49
:1016B00039F0B93FCCF3869577956795B395D9F70F
:1016C0003EF490958095709561957F4F8F4F9F4F19
:1016D0000895E89409C097FB3EF490958095709525
:1016E00061957F4F8F4F9F4F9923A9F0F92F96E96E
:1016F000BB279395F695879577956795B795F111E3
:10170000F8CFFAF4BB0F11F460FF1BC06F5F7F4F7F
:101710008F4F9F4F16C0882311F096E911C0772391
:1017200021F09EE8872F762F05C0662371F096E89A
:10173000862F70E060E02AF09A95660F771F881F69
:10174000DAF7880F9695879597F90895990F00080D
:10175000550FAA0BE0E8FEEF16161706E807F90783
:10176000C0F012161306E407F50798F0621B730B1E
:10177000840B950B39F40A2661F0232B242B252B9F
:1017800021F408950A2609F4A140A6958FEF811D42
:10179000811D089597F99F6780E870E060E00895E3
:1017A0009FEF80EC089500240A9416161706180679
:1017B0000906089500240A94121613061406050655
:1017C0000895092E0394000C11F4882352F0BB0FE6
:1017D00040F4BF2B11F460FF04C06F5F7F4F8F4F49
:1017E0009F4F089557FD9058440F551F59F05F3F84
:1017F00071F04795880F97FB991F61F09F3F79F033
:1018000087950895121613061406551FF2CF4695B4
:10181000F1DF08C0161617061806991FF1CF869536
:101820007105610508940895E894BB27662777271A
:10183000CB0197F908950E94A60B08F48FEF089545
:101840000E94330C0C94E10B0E94D30B38F00E94E1
:10185000DA0B20F0952311F00C94CA0B0C94D00BEA
:1018600011240C94150C0E94F20B70F3959FC1F398
:10187000950F50E0551F629FF001729FBB27F00D3E
:10188000B11D639FAA27F00DB11DAA1F649F662793
:10189000B00DA11D661F829F2227B00DA11D621FE2
:1018A000739FB00DA11D621F839FA00D611D221F9C
:1018B000749F3327A00D611D231F849F600D211D80
:1018C000822F762F6A2F11249F5750409AF0F1F003
:1018D00088234AF0EE0FFF1FBB1F661F771F881F6C
:1018E00091505040A9F79E3F510580F00C94CA0BCF
:1018F0000C94150C5F3FE4F3983ED4F386957795EE
:101900006795B795F795E7959F5FC1F7FE2B880F11
:10191000911D9695879597F908950E94A60B880BBF
:10192000990B089597FB072E16F4009407D077FDC6
:1019300009D00E94D00C07FC05D03EF4909581950B
:101940009F4F0895709561957F4F0895A1E21A2EDB
:10195000AA1BBB1BFD010DC0AA1FBB1FEE1FFF1F53
:10196000A217B307E407F50720F0A21BB30BE40BA3
:10197000F50B661F771F881F991F1A9469F76095EA
:101980007095809590959B01AC01BD01CF010895A4
:10199000EE0FFF1F881F8BBF0790F691E02D199463
:1019A000AA1BBB1B51E107C0AA1FBB1FA617B70785
:1019B00010F0A61BB70B881F991F5A95A9F78095A1
:0C19C0009095BC01CD010895F894FFCF74
:1019CC005E00BC007701000000007E02E8011502F9
:1019DC00CB0246022402380244616C6C61732054C1
:1019EC00656D706572617475726520494320436F33
:1019FC006E74726F6C204C696272617279204465EE
:101A0C006D6F000D0A002052657175657374696EF7
:101A1C00672074656D7065726174757265732E2EB6
:101A2C002E00444F4E450054656D7065726174759F
:101A3C0072652069733A20006E616E00696E6600F3
:041A4C006F7666004B
:00000001FF
